{
  "contractName": "Persssist",
  "abi": [
    {
      "anonymous": false,
      "inputs": [
        {
          "indexed": false,
          "internalType": "uint256",
          "name": "fileId",
          "type": "uint256"
        },
        {
          "indexed": false,
          "internalType": "string",
          "name": "filePath",
          "type": "string"
        },
        {
          "indexed": false,
          "internalType": "uint256",
          "name": "fileSize",
          "type": "uint256"
        },
        {
          "indexed": false,
          "internalType": "string",
          "name": "fileType",
          "type": "string"
        },
        {
          "indexed": false,
          "internalType": "string",
          "name": "fileName",
          "type": "string"
        },
        {
          "indexed": false,
          "internalType": "address payable",
          "name": "uploader",
          "type": "address"
        }
      ],
      "name": "FileUploaded",
      "type": "event"
    },
    {
      "inputs": [],
      "name": "fileCount",
      "outputs": [
        {
          "internalType": "uint256",
          "name": "",
          "type": "uint256"
        }
      ],
      "stateMutability": "view",
      "type": "function"
    },
    {
      "inputs": [
        {
          "internalType": "uint256",
          "name": "",
          "type": "uint256"
        }
      ],
      "name": "files",
      "outputs": [
        {
          "internalType": "uint256",
          "name": "fileId",
          "type": "uint256"
        },
        {
          "internalType": "string",
          "name": "filePath",
          "type": "string"
        },
        {
          "internalType": "uint256",
          "name": "fileSize",
          "type": "uint256"
        },
        {
          "internalType": "string",
          "name": "fileType",
          "type": "string"
        },
        {
          "internalType": "string",
          "name": "fileName",
          "type": "string"
        },
        {
          "internalType": "address payable",
          "name": "uploader",
          "type": "address"
        }
      ],
      "stateMutability": "view",
      "type": "function"
    },
    {
      "inputs": [],
      "name": "name",
      "outputs": [
        {
          "internalType": "string",
          "name": "",
          "type": "string"
        }
      ],
      "stateMutability": "view",
      "type": "function"
    },
    {
      "inputs": [
        {
          "internalType": "string",
          "name": "_filePath",
          "type": "string"
        },
        {
          "internalType": "uint256",
          "name": "_fileSize",
          "type": "uint256"
        },
        {
          "internalType": "string",
          "name": "_fileType",
          "type": "string"
        },
        {
          "internalType": "string",
          "name": "_fileName",
          "type": "string"
        }
      ],
      "name": "uploadFile",
      "outputs": [],
      "stateMutability": "nonpayable",
      "type": "function"
    }
  ],
  "bytecode": "0x60806040526040518060400160405280600981526020017f5065727373736973740000000000000000000000000000000000000000000000815250600090816200004a9190620002de565b5060006001553480156200005d57600080fd5b50620003c5565b600081519050919050565b7f4e487b7100000000000000000000000000000000000000000000000000000000600052604160045260246000fd5b7f4e487b7100000000000000000000000000000000000000000000000000000000600052602260045260246000fd5b60006002820490506001821680620000e657607f821691505b602082108103620000fc57620000fb6200009e565b5b50919050565b60008190508160005260206000209050919050565b60006020601f8301049050919050565b600082821b905092915050565b600060088302620001667fffffffffffffffffffffffffffffffffffffffffffffffffffffffffffffffff8262000127565b62000172868362000127565b95508019841693508086168417925050509392505050565b6000819050919050565b6000819050919050565b6000620001bf620001b9620001b3846200018a565b62000194565b6200018a565b9050919050565b6000819050919050565b620001db836200019e565b620001f3620001ea82620001c6565b84845462000134565b825550505050565b600090565b6200020a620001fb565b62000217818484620001d0565b505050565b5b818110156200023f576200023360008262000200565b6001810190506200021d565b5050565b601f8211156200028e57620002588162000102565b620002638462000117565b8101602085101562000273578190505b6200028b620002828562000117565b8301826200021c565b50505b505050565b600082821c905092915050565b6000620002b36000198460080262000293565b1980831691505092915050565b6000620002ce8383620002a0565b9150826002028217905092915050565b620002e98262000064565b67ffffffffffffffff8111156200030557620003046200006f565b5b620003118254620000cd565b6200031e82828562000243565b600060209050601f83116001811462000356576000841562000341578287015190505b6200034d8582620002c0565b865550620003bd565b601f198416620003668662000102565b60005b82811015620003905784890151825560018201915060208501945060208101905062000369565b86831015620003b05784890151620003ac601f891682620002a0565b8355505b6001600288020188555050505b505050505050565b610cb680620003d56000396000f3fe608060405234801561001057600080fd5b506004361061004c5760003560e01c806306fdde031461005157806320f217081461006f578063439535191461008b578063f4c714b4146100a9575b600080fd5b6100596100de565b60405161006691906105c1565b60405180910390f35b61008960048036038101906100849190610762565b61016c565b005b610093610337565b6040516100a0919061082c565b60405180910390f35b6100c360048036038101906100be9190610847565b61033d565b6040516100d5969594939291906108b5565b60405180910390f35b600080546100eb9061095a565b80601f01602080910402602001604051908101604052809291908181526020018280546101179061095a565b80156101645780601f1061013957610100808354040283529160200191610164565b820191906000526020600020905b81548152906001019060200180831161014757829003601f168201915b505050505081565b600084511161017a57600080fd5b600082511161018857600080fd5b600081511161019657600080fd5b600073ffffffffffffffffffffffffffffffffffffffff163373ffffffffffffffffffffffffffffffffffffffff16036101cf57600080fd5b600083116101dc57600080fd5b600160008154809291906101ef906109ba565b91905055506040518060c0016040528060015481526020018581526020018481526020018381526020018281526020013373ffffffffffffffffffffffffffffffffffffffff1681525060026000600154815260200190815260200160002060008201518160000155602082015181600101908161026d9190610bae565b5060408201518160020155606082015181600301908161028d9190610bae565b5060808201518160040190816102a39190610bae565b5060a08201518160050160006101000a81548173ffffffffffffffffffffffffffffffffffffffff021916908373ffffffffffffffffffffffffffffffffffffffff1602179055509050507f18fe72dea7e3849a958d8ddaf36c0a56df898162e5a3253bb944b1d9609b2e5c6001548585858533604051610329969594939291906108b5565b60405180910390a150505050565b60015481565b60026020528060005260406000206000915090508060000154908060010180546103669061095a565b80601f01602080910402602001604051908101604052809291908181526020018280546103929061095a565b80156103df5780601f106103b4576101008083540402835291602001916103df565b820191906000526020600020905b8154815290600101906020018083116103c257829003601f168201915b5050505050908060020154908060030180546103fa9061095a565b80601f01602080910402602001604051908101604052809291908181526020018280546104269061095a565b80156104735780601f1061044857610100808354040283529160200191610473565b820191906000526020600020905b81548152906001019060200180831161045657829003601f168201915b5050505050908060040180546104889061095a565b80601f01602080910402602001604051908101604052809291908181526020018280546104b49061095a565b80156105015780601f106104d657610100808354040283529160200191610501565b820191906000526020600020905b8154815290600101906020018083116104e457829003601f168201915b5050505050908060050160009054906101000a900473ffffffffffffffffffffffffffffffffffffffff16905086565b600081519050919050565b600082825260208201905092915050565b60005b8381101561056b578082015181840152602081019050610550565b60008484015250505050565b6000601f19601f8301169050919050565b600061059382610531565b61059d818561053c565b93506105ad81856020860161054d565b6105b681610577565b840191505092915050565b600060208201905081810360008301526105db8184610588565b905092915050565b6000604051905090565b600080fd5b600080fd5b600080fd5b600080fd5b7f4e487b7100000000000000000000000000000000000000000000000000000000600052604160045260246000fd5b61063982610577565b810181811067ffffffffffffffff8211171561065857610657610601565b5b80604052505050565b600061066b6105e3565b90506106778282610630565b919050565b600067ffffffffffffffff82111561069757610696610601565b5b6106a082610577565b9050602081019050919050565b82818337600083830152505050565b60006106cf6106ca8461067c565b610661565b9050828152602081018484840111156106eb576106ea6105fc565b5b6106f68482856106ad565b509392505050565b600082601f830112610713576107126105f7565b5b81356107238482602086016106bc565b91505092915050565b6000819050919050565b61073f8161072c565b811461074a57600080fd5b50565b60008135905061075c81610736565b92915050565b6000806000806080858703121561077c5761077b6105ed565b5b600085013567ffffffffffffffff81111561079a576107996105f2565b5b6107a6878288016106fe565b94505060206107b78782880161074d565b935050604085013567ffffffffffffffff8111156107d8576107d76105f2565b5b6107e4878288016106fe565b925050606085013567ffffffffffffffff811115610805576108046105f2565b5b610811878288016106fe565b91505092959194509250565b6108268161072c565b82525050565b6000602082019050610841600083018461081d565b92915050565b60006020828403121561085d5761085c6105ed565b5b600061086b8482850161074d565b91505092915050565b600073ffffffffffffffffffffffffffffffffffffffff82169050919050565b600061089f82610874565b9050919050565b6108af81610894565b82525050565b600060c0820190506108ca600083018961081d565b81810360208301526108dc8188610588565b90506108eb604083018761081d565b81810360608301526108fd8186610588565b905081810360808301526109118185610588565b905061092060a08301846108a6565b979650505050505050565b7f4e487b7100000000000000000000000000000000000000000000000000000000600052602260045260246000fd5b6000600282049050600182168061097257607f821691505b6020821081036109855761098461092b565b5b50919050565b7f4e487b7100000000000000000000000000000000000000000000000000000000600052601160045260246000fd5b60006109c58261072c565b91507fffffffffffffffffffffffffffffffffffffffffffffffffffffffffffffffff82036109f7576109f661098b565b5b600182019050919050565b60008190508160005260206000209050919050565b60006020601f8301049050919050565b600082821b905092915050565b600060088302610a647fffffffffffffffffffffffffffffffffffffffffffffffffffffffffffffffff82610a27565b610a6e8683610a27565b95508019841693508086168417925050509392505050565b6000819050919050565b6000610aab610aa6610aa18461072c565b610a86565b61072c565b9050919050565b6000819050919050565b610ac583610a90565b610ad9610ad182610ab2565b848454610a34565b825550505050565b600090565b610aee610ae1565b610af9818484610abc565b505050565b5b81811015610b1d57610b12600082610ae6565b600181019050610aff565b5050565b601f821115610b6257610b3381610a02565b610b3c84610a17565b81016020851015610b4b578190505b610b5f610b5785610a17565b830182610afe565b50505b505050565b600082821c905092915050565b6000610b8560001984600802610b67565b1980831691505092915050565b6000610b9e8383610b74565b9150826002028217905092915050565b610bb782610531565b67ffffffffffffffff811115610bd057610bcf610601565b5b610bda825461095a565b610be5828285610b21565b600060209050601f831160018114610c185760008415610c06578287015190505b610c108582610b92565b865550610c78565b601f198416610c2686610a02565b60005b82811015610c4e57848901518255600182019150602085019450602081019050610c29565b86831015610c6b5784890151610c67601f891682610b74565b8355505b6001600288020188555050505b50505050505056fea264697066735822122013b9523a71002a1b08d8510d6dd3b4aa3a6c614871ac1e0cb71874b7897cce1064736f6c63430008130033",
  "immutableReferences": {},
  "source": "// SPDX-License-Identifier: MIT\npragma solidity >=0.4.22 <0.9.0;\n\ncontract Persssist {\n    string public name = \"Persssist\";\n    uint256 public fileCount = 0;\n    mapping(uint256 => File) public files;\n\n    struct File {\n        uint256 fileId;\n        string filePath;\n        uint256 fileSize;\n        string fileType;\n        string fileName;\n        address payable uploader;\n    }\n\n    event FileUploaded(\n        uint256 fileId,\n        string filePath,\n        uint256 fileSize,\n        string fileType,\n        string fileName,\n        address payable uploader\n    );\n\n    function uploadFile(\n        string memory _filePath,\n        uint256 _fileSize,\n        string memory _fileType,\n        string memory _fileName\n    ) public {\n        require(bytes(_filePath).length > 0);\n        require(bytes(_fileType).length > 0);\n        require(bytes(_fileName).length > 0);\n        require(msg.sender != address(0));\n        require(_fileSize > 0);\n\n        fileCount++;\n\n        files[fileCount] = File(\n            fileCount,\n            _filePath,\n            _fileSize,\n            _fileType,\n            _fileName,\n            payable(msg.sender)\n        );\n        \n        emit FileUploaded(\n            fileCount,\n            _filePath,\n            _fileSize,\n            _fileType,\n            _fileName,\n            payable(msg.sender)\n        );\n    }\n}\n",
  "sourcePath": "C:\\Users\\sarth\\Documents\\Major\\geospatial\\contracts\\Persssist.sol",
  "compiler": {
    "name": "solc",
    "version": "0.8.19+commit.7dd6d404.Emscripten.clang"
  },
  "schemaVersion": "3.4.13",
  "updatedAt": "2023-05-28T22:51:15.766Z",
  "devdoc": {
    "kind": "dev",
    "methods": {},
    "version": 1
  },
  "userdoc": {
    "kind": "user",
    "methods": {},
    "version": 1
  }
}